{
  "contractName": "GroupBuying",
  "abi": [
    {
      "anonymous": false,
      "inputs": [
        {
          "indexed": true,
          "internalType": "uint256",
          "name": "campaignId",
          "type": "uint256"
        },
        {
          "indexed": false,
          "internalType": "enum GroupBuying.Status",
          "name": "status",
          "type": "uint8"
        }
      ],
      "name": "CampaignCompleted",
      "type": "event"
    },
    {
      "anonymous": false,
      "inputs": [
        {
          "indexed": true,
          "internalType": "uint256",
          "name": "campaignId",
          "type": "uint256"
        },
        {
          "indexed": false,
          "internalType": "string",
          "name": "title",
          "type": "string"
        },
        {
          "indexed": false,
          "internalType": "address",
          "name": "creator",
          "type": "address"
        }
      ],
      "name": "CampaignCreated",
      "type": "event"
    },
    {
      "anonymous": false,
      "inputs": [
        {
          "indexed": true,
          "internalType": "uint256",
          "name": "campaignId",
          "type": "uint256"
        },
        {
          "indexed": false,
          "internalType": "address",
          "name": "creator",
          "type": "address"
        }
      ],
      "name": "CampaignDeleted",
      "type": "event"
    },
    {
      "anonymous": false,
      "inputs": [
        {
          "indexed": true,
          "internalType": "uint256",
          "name": "campaignId",
          "type": "uint256"
        },
        {
          "indexed": false,
          "internalType": "address",
          "name": "participant",
          "type": "address"
        }
      ],
      "name": "ParticipantJoined",
      "type": "event"
    },
    {
      "inputs": [],
      "name": "campaignCount",
      "outputs": [
        {
          "internalType": "uint256",
          "name": "",
          "type": "uint256"
        }
      ],
      "stateMutability": "view",
      "type": "function",
      "constant": true
    },
    {
      "inputs": [
        {
          "internalType": "uint256",
          "name": "",
          "type": "uint256"
        }
      ],
      "name": "campaigns",
      "outputs": [
        {
          "internalType": "string",
          "name": "title",
          "type": "string"
        },
        {
          "internalType": "uint256",
          "name": "price",
          "type": "uint256"
        },
        {
          "internalType": "uint256",
          "name": "minParticipants",
          "type": "uint256"
        },
        {
          "internalType": "uint256",
          "name": "deadline",
          "type": "uint256"
        },
        {
          "internalType": "uint256",
          "name": "currentParticipants",
          "type": "uint256"
        },
        {
          "internalType": "enum GroupBuying.Status",
          "name": "status",
          "type": "uint8"
        },
        {
          "internalType": "address",
          "name": "creator",
          "type": "address"
        },
        {
          "internalType": "string",
          "name": "imageUrl",
          "type": "string"
        }
      ],
      "stateMutability": "view",
      "type": "function",
      "constant": true
    },
    {
      "inputs": [
        {
          "internalType": "string",
          "name": "_title",
          "type": "string"
        },
        {
          "internalType": "uint256",
          "name": "_price",
          "type": "uint256"
        },
        {
          "internalType": "uint256",
          "name": "_minParticipants",
          "type": "uint256"
        },
        {
          "internalType": "uint256",
          "name": "_deadline",
          "type": "uint256"
        },
        {
          "internalType": "string",
          "name": "_imageUrl",
          "type": "string"
        }
      ],
      "name": "createCampaign",
      "outputs": [
        {
          "internalType": "uint256",
          "name": "",
          "type": "uint256"
        }
      ],
      "stateMutability": "nonpayable",
      "type": "function"
    },
    {
      "inputs": [
        {
          "internalType": "uint256",
          "name": "_campaignId",
          "type": "uint256"
        }
      ],
      "name": "deleteCampaign",
      "outputs": [],
      "stateMutability": "nonpayable",
      "type": "function"
    },
    {
      "inputs": [
        {
          "internalType": "uint256",
          "name": "_campaignId",
          "type": "uint256"
        }
      ],
      "name": "join",
      "outputs": [],
      "stateMutability": "nonpayable",
      "type": "function"
    },
    {
      "inputs": [
        {
          "internalType": "uint256",
          "name": "_campaignId",
          "type": "uint256"
        }
      ],
      "name": "checkStatus",
      "outputs": [],
      "stateMutability": "nonpayable",
      "type": "function"
    },
    {
      "inputs": [
        {
          "internalType": "uint256",
          "name": "_campaignId",
          "type": "uint256"
        }
      ],
      "name": "getCampaign",
      "outputs": [
        {
          "internalType": "string",
          "name": "title",
          "type": "string"
        },
        {
          "internalType": "uint256",
          "name": "price",
          "type": "uint256"
        },
        {
          "internalType": "uint256",
          "name": "minParticipants",
          "type": "uint256"
        },
        {
          "internalType": "uint256",
          "name": "deadline",
          "type": "uint256"
        },
        {
          "internalType": "uint256",
          "name": "currentParticipants",
          "type": "uint256"
        },
        {
          "internalType": "enum GroupBuying.Status",
          "name": "status",
          "type": "uint8"
        },
        {
          "internalType": "address",
          "name": "creator",
          "type": "address"
        },
        {
          "internalType": "string",
          "name": "imageUrl",
          "type": "string"
        }
      ],
      "stateMutability": "view",
      "type": "function",
      "constant": true
    },
    {
      "inputs": [
        {
          "internalType": "uint256",
          "name": "_campaignId",
          "type": "uint256"
        },
        {
          "internalType": "address",
          "name": "_participant",
          "type": "address"
        }
      ],
      "name": "hasJoined",
      "outputs": [
        {
          "internalType": "bool",
          "name": "",
          "type": "bool"
        }
      ],
      "stateMutability": "view",
      "type": "function",
      "constant": true
    }
  ],
  "bytecode": "0x608060405234801561001057600080fd5b50611a04806100206000396000f3fe608060405234801561001057600080fd5b50600436106100885760003560e01c8063681947191161005b57806368194719146101335780637274e30d146101635780637597019314610181578063e06691351461019d57610088565b8063049878f31461008d578063141961bc146100a95780632858c764146100e05780635598f8cc146100fc575b600080fd5b6100a760048036038101906100a29190610db2565b6101cd565b005b6100c360048036038101906100be9190610db2565b610457565b6040516100d7989796959493929190610f36565b60405180910390f35b6100fa60048036038101906100f59190610db2565b6105dc565b005b61011660048036038101906101119190610db2565b6106fe565b60405161012a989796959493929190610f36565b60405180910390f35b61014d60048036038101906101489190610fee565b6108a9565b60405161015a9190611049565b60405180910390f35b61016b610914565b6040516101789190611064565b60405180910390f35b61019b60048036038101906101969190610db2565b61091a565b005b6101b760048036038101906101b291906111b4565b610b4f565b6040516101c49190611064565b60405180910390f35b6000600160008381526020019081526020016000209050600060028111156101f8576101f7610e7e565b5b8160050160009054906101000a900460ff16600281111561021c5761021b610e7e565b5b1461025c576040517f08c379a0000000000000000000000000000000000000000000000000000000008152600401610253906112b3565b60405180910390fd5b806003015442106102a2576040517f08c379a00000000000000000000000000000000000000000000000000000000081526004016102999061131f565b60405180910390fd5b8060070160003373ffffffffffffffffffffffffffffffffffffffff1673ffffffffffffffffffffffffffffffffffffffff16815260200190815260200160002060009054906101000a900460ff1615610331576040517f08c379a00000000000000000000000000000000000000000000000000000000081526004016103289061138b565b60405180910390fd5b60018160070160003373ffffffffffffffffffffffffffffffffffffffff1673ffffffffffffffffffffffffffffffffffffffff16815260200190815260200160002060006101000a81548160ff0219169083151502179055508060040160008154809291906103a0906113da565b9190505550817f7dd8cb04159701bc1976c246434d7d96812782e7489e6c5c34db49a388fe9e80336040516103d59190611422565b60405180910390a280600201548160040154106104535760018160050160006101000a81548160ff0219169083600281111561041457610413610e7e565b5b0217905550817f674e3617534f328d2a47f5e828ca3ad579c3141de1e75b7823daf4ba7574581e600160405161044a919061143d565b60405180910390a25b5050565b600160205280600052604060002060009150905080600001805461047a90611487565b80601f01602080910402602001604051908101604052809291908181526020018280546104a690611487565b80156104f35780601f106104c8576101008083540402835291602001916104f3565b820191906000526020600020905b8154815290600101906020018083116104d657829003601f168201915b5050505050908060010154908060020154908060030154908060040154908060050160009054906101000a900460ff16908060050160019054906101000a900473ffffffffffffffffffffffffffffffffffffffff169080600601805461055990611487565b80601f016020809104026020016040519081016040528092919081815260200182805461058590611487565b80156105d25780601f106105a7576101008083540402835291602001916105d2565b820191906000526020600020905b8154815290600101906020018083116105b557829003601f168201915b5050505050905088565b60006001600083815260200190815260200160002090506000600281111561060757610606610e7e565b5b8160050160009054906101000a900460ff16600281111561062b5761062a610e7e565b5b14801561063c575080600301544210155b156106fa5780600201548160040154106106825760018160050160006101000a81548160ff0219169083600281111561067857610677610e7e565b5b02179055506106b0565b60028160050160006101000a81548160ff021916908360028111156106aa576106a9610e7e565b5b02179055505b817f674e3617534f328d2a47f5e828ca3ad579c3141de1e75b7823daf4ba7574581e8260050160009054906101000a900460ff166040516106f1919061143d565b60405180910390a25b5050565b606060008060008060008060606000600160008b815260200190815260200160002090508060000181600101548260020154836003015484600401548560050160009054906101000a900460ff168660050160019054906101000a900473ffffffffffffffffffffffffffffffffffffffff168760060187805461078190611487565b80601f01602080910402602001604051908101604052809291908181526020018280546107ad90611487565b80156107fa5780601f106107cf576101008083540402835291602001916107fa565b820191906000526020600020905b8154815290600101906020018083116107dd57829003601f168201915b5050505050975080805461080d90611487565b80601f016020809104026020016040519081016040528092919081815260200182805461083990611487565b80156108865780601f1061085b57610100808354040283529160200191610886565b820191906000526020600020905b81548152906001019060200180831161086957829003601f168201915b505050505090509850985098509850985098509850985050919395975091939597565b60006001600084815260200190815260200160002060070160008373ffffffffffffffffffffffffffffffffffffffff1673ffffffffffffffffffffffffffffffffffffffff16815260200190815260200160002060009054906101000a900460ff16905092915050565b60005481565b60006001600083815260200190815260200160002090508060050160019054906101000a900473ffffffffffffffffffffffffffffffffffffffff1673ffffffffffffffffffffffffffffffffffffffff163373ffffffffffffffffffffffffffffffffffffffff16146109c3576040517f08c379a00000000000000000000000000000000000000000000000000000000081526004016109ba90611504565b60405180910390fd5b6000816004015414610a0a576040517f08c379a0000000000000000000000000000000000000000000000000000000008152600401610a0190611596565b60405180910390fd5b60006002811115610a1e57610a1d610e7e565b5b8160050160009054906101000a900460ff166002811115610a4257610a41610e7e565b5b14610a82576040517f08c379a0000000000000000000000000000000000000000000000000000000008152600401610a7990611602565b60405180910390fd5b6001600083815260200190815260200160002060008082016000610aa69190610d0b565b60018201600090556002820160009055600382016000905560048201600090556005820160006101000a81549060ff02191690556005820160016101000a81549073ffffffffffffffffffffffffffffffffffffffff0219169055600682016000610b119190610d0b565b5050817f8b2c4705c247d8d9f05477ce4c82c82947d7b6274633d30c3f1a0e07a66d4bb633604051610b439190611422565b60405180910390a25050565b6000428311610b93576040517f08c379a0000000000000000000000000000000000000000000000000000000008152600401610b8a9061166e565b60405180910390fd5b60008411610bd6576040517f08c379a0000000000000000000000000000000000000000000000000000000008152600401610bcd90611700565b60405180910390fd5b600080549050600060016000838152602001908152602001600020905087816000019081610c0491906118cc565b508681600101819055508581600201819055508481600301819055506000816004018190555060008160050160006101000a81548160ff02191690836002811115610c5257610c51610e7e565b5b0217905550338160050160016101000a81548173ffffffffffffffffffffffffffffffffffffffff021916908373ffffffffffffffffffffffffffffffffffffffff16021790555083816006019081610cab91906118cc565b50600080815480929190610cbe906113da565b9190505550817f2750eae5c1c1d8000d7e674f15576524a1b7e24f4a33052e9d80ce3889556e398933604051610cf592919061199e565b60405180910390a2819250505095945050505050565b508054610d1790611487565b6000825580601f10610d295750610d48565b601f016020900490600052602060002090810190610d479190610d4b565b5b50565b5b80821115610d64576000816000905550600101610d4c565b5090565b6000604051905090565b600080fd5b600080fd5b6000819050919050565b610d8f81610d7c565b8114610d9a57600080fd5b50565b600081359050610dac81610d86565b92915050565b600060208284031215610dc857610dc7610d72565b5b6000610dd684828501610d9d565b91505092915050565b600081519050919050565b600082825260208201905092915050565b60005b83811015610e19578082015181840152602081019050610dfe565b60008484015250505050565b6000601f19601f8301169050919050565b6000610e4182610ddf565b610e4b8185610dea565b9350610e5b818560208601610dfb565b610e6481610e25565b840191505092915050565b610e7881610d7c565b82525050565b7f4e487b7100000000000000000000000000000000000000000000000000000000600052602160045260246000fd5b60038110610ebe57610ebd610e7e565b5b50565b6000819050610ecf82610ead565b919050565b6000610edf82610ec1565b9050919050565b610eef81610ed4565b82525050565b600073ffffffffffffffffffffffffffffffffffffffff82169050919050565b6000610f2082610ef5565b9050919050565b610f3081610f15565b82525050565b6000610100820190508181036000830152610f51818b610e36565b9050610f60602083018a610e6f565b610f6d6040830189610e6f565b610f7a6060830188610e6f565b610f876080830187610e6f565b610f9460a0830186610ee6565b610fa160c0830185610f27565b81810360e0830152610fb38184610e36565b90509998505050505050505050565b610fcb81610f15565b8114610fd657600080fd5b50565b600081359050610fe881610fc2565b92915050565b6000806040838503121561100557611004610d72565b5b600061101385828601610d9d565b925050602061102485828601610fd9565b9150509250929050565b60008115159050919050565b6110438161102e565b82525050565b600060208201905061105e600083018461103a565b92915050565b60006020820190506110796000830184610e6f565b92915050565b600080fd5b600080fd5b7f4e487b7100000000000000000000000000000000000000000000000000000000600052604160045260246000fd5b6110c182610e25565b810181811067ffffffffffffffff821117156110e0576110df611089565b5b80604052505050565b60006110f3610d68565b90506110ff82826110b8565b919050565b600067ffffffffffffffff82111561111f5761111e611089565b5b61112882610e25565b9050602081019050919050565b82818337600083830152505050565b600061115761115284611104565b6110e9565b90508281526020810184848401111561117357611172611084565b5b61117e848285611135565b509392505050565b600082601f83011261119b5761119a61107f565b5b81356111ab848260208601611144565b91505092915050565b600080600080600060a086880312156111d0576111cf610d72565b5b600086013567ffffffffffffffff8111156111ee576111ed610d77565b5b6111fa88828901611186565b955050602061120b88828901610d9d565b945050604061121c88828901610d9d565b935050606061122d88828901610d9d565b925050608086013567ffffffffffffffff81111561124e5761124d610d77565b5b61125a88828901611186565b9150509295509295909350565b7f43616d706169676e206973206e6f74206f70656e000000000000000000000000600082015250565b600061129d601483610dea565b91506112a882611267565b602082019050919050565b600060208201905081810360008301526112cc81611290565b9050919050565b7f43616d706169676e2068617320656e6465640000000000000000000000000000600082015250565b6000611309601283610dea565b9150611314826112d3565b602082019050919050565b60006020820190508181036000830152611338816112fc565b9050919050565b7f416c7265616479206a6f696e6564000000000000000000000000000000000000600082015250565b6000611375600e83610dea565b91506113808261133f565b602082019050919050565b600060208201905081810360008301526113a481611368565b9050919050565b7f4e487b7100000000000000000000000000000000000000000000000000000000600052601160045260246000fd5b60006113e582610d7c565b91507fffffffffffffffffffffffffffffffffffffffffffffffffffffffffffffffff8203611417576114166113ab565b5b600182019050919050565b60006020820190506114376000830184610f27565b92915050565b60006020820190506114526000830184610ee6565b92915050565b7f4e487b7100000000000000000000000000000000000000000000000000000000600052602260045260246000fd5b6000600282049050600182168061149f57607f821691505b6020821081036114b2576114b1611458565b5b50919050565b7f4f6e6c792063726561746f722063616e2064656c6574652063616d706169676e600082015250565b60006114ee602083610dea565b91506114f9826114b8565b602082019050919050565b6000602082019050818103600083015261151d816114e1565b9050919050565b7f43616e6e6f742064656c6574652063616d706169676e2077697468207061727460008201527f69636970616e7473000000000000000000000000000000000000000000000000602082015250565b6000611580602883610dea565b915061158b82611524565b604082019050919050565b600060208201905081810360008301526115af81611573565b9050919050565b7f43616e6e6f742064656c65746520636f6d706c657465642063616d706169676e600082015250565b60006115ec602083610dea565b91506115f7826115b6565b602082019050919050565b6000602082019050818103600083015261161b816115df565b9050919050565b7f446561646c696e65206d75737420626520696e20746865206675747572650000600082015250565b6000611658601e83610dea565b915061166382611622565b602082019050919050565b600060208201905081810360008301526116878161164b565b9050919050565b7f4d696e696d756d207061727469636970616e7473206d7573742062652067726560008201527f61746572207468616e2030000000000000000000000000000000000000000000602082015250565b60006116ea602b83610dea565b91506116f58261168e565b604082019050919050565b60006020820190508181036000830152611719816116dd565b9050919050565b60008190508160005260206000209050919050565b60006020601f8301049050919050565b600082821b905092915050565b6000600883026117827fffffffffffffffffffffffffffffffffffffffffffffffffffffffffffffffff82611745565b61178c8683611745565b95508019841693508086168417925050509392505050565b6000819050919050565b60006117c96117c46117bf84610d7c565b6117a4565b610d7c565b9050919050565b6000819050919050565b6117e3836117ae565b6117f76117ef826117d0565b848454611752565b825550505050565b600090565b61180c6117ff565b6118178184846117da565b505050565b5b8181101561183b57611830600082611804565b60018101905061181d565b5050565b601f8211156118805761185181611720565b61185a84611735565b81016020851015611869578190505b61187d61187585611735565b83018261181c565b50505b505050565b600082821c905092915050565b60006118a360001984600802611885565b1980831691505092915050565b60006118bc8383611892565b9150826002028217905092915050565b6118d582610ddf565b67ffffffffffffffff8111156118ee576118ed611089565b5b6118f88254611487565b61190382828561183f565b600060209050601f8311600181146119365760008415611924578287015190505b61192e85826118b0565b865550611996565b601f19841661194486611720565b60005b8281101561196c57848901518255600182019150602085019450602081019050611947565b868310156119895784890151611985601f891682611892565b8355505b6001600288020188555050505b505050505050565b600060408201905081810360008301526119b88185610e36565b90506119c76020830184610f27565b939250505056fea26469706673582212209b6369855a13c10d017e08e52664fd9ae3206e011efe95d29cca07815fe20ae964736f6c63430008130033",
  "immutableReferences": {},
  "source": "// SPDX-License-Identifier: MIT\npragma solidity ^0.8.19;\n\ncontract GroupBuying {\n    enum Status { OPEN, SUCCESS, FAILED }\n    \n    struct Campaign {\n        string title;           //  \n        uint256 price;          //  \n        uint256 minParticipants;//   \n        uint256 deadline;       //   (timestamp)\n        uint256 currentParticipants; //   \n        Status status;          //  \n        address creator;        // \n        string imageUrl;        //   URL\n        mapping(address => bool) participants; //  \n    }\n    \n    uint256 public campaignCount;\n    mapping(uint256 => Campaign) public campaigns;\n    \n    //  \n    event CampaignCreated(uint256 indexed campaignId, string title, address creator);\n    event CampaignDeleted(uint256 indexed campaignId, address creator);\n    event ParticipantJoined(uint256 indexed campaignId, address participant);\n    event CampaignCompleted(uint256 indexed campaignId, Status status);\n    \n    //  \n    function createCampaign(\n        string memory _title,\n        uint256 _price,\n        uint256 _minParticipants,\n        uint256 _deadline,\n        string memory _imageUrl\n    ) public returns (uint256) {\n        require(_deadline > block.timestamp, \"Deadline must be in the future\");\n        require(_minParticipants > 0, \"Minimum participants must be greater than 0\");\n        \n        uint256 campaignId = campaignCount;\n        Campaign storage campaign = campaigns[campaignId];\n        \n        campaign.title = _title;\n        campaign.price = _price;\n        campaign.minParticipants = _minParticipants;\n        campaign.deadline = _deadline;\n        campaign.currentParticipants = 0;\n        campaign.status = Status.OPEN;\n        campaign.creator = msg.sender;\n        campaign.imageUrl = _imageUrl;\n        \n        campaignCount++;\n        \n        emit CampaignCreated(campaignId, _title, msg.sender);\n        return campaignId;\n    }\n    //  \n    function deleteCampaign(uint256 _campaignId) public {\n        Campaign storage campaign = campaigns[_campaignId];\n        require(msg.sender == campaign.creator, \"Only creator can delete campaign\");\n        require(campaign.currentParticipants == 0, \"Cannot delete campaign with participants\");\n        require(campaign.status == Status.OPEN, \"Cannot delete completed campaign\");\n        \n        delete campaigns[_campaignId];\n        emit CampaignDeleted(_campaignId, msg.sender);\n    }\n    \n    //  \n    function join(uint256 _campaignId) public {\n        Campaign storage campaign = campaigns[_campaignId];\n        \n        require(campaign.status == Status.OPEN, \"Campaign is not open\");\n        require(block.timestamp < campaign.deadline, \"Campaign has ended\");\n        require(!campaign.participants[msg.sender], \"Already joined\");\n        \n        campaign.participants[msg.sender] = true;\n        campaign.currentParticipants++;\n        \n        emit ParticipantJoined(_campaignId, msg.sender);\n        \n        if(campaign.currentParticipants >= campaign.minParticipants) {\n            campaign.status = Status.SUCCESS;\n            emit CampaignCompleted(_campaignId, Status.SUCCESS);\n        }\n    }\n    \n    //   \n    function checkStatus(uint256 _campaignId) public {\n        Campaign storage campaign = campaigns[_campaignId];\n        \n        if(campaign.status == Status.OPEN && block.timestamp >= campaign.deadline) {\n            if(campaign.currentParticipants >= campaign.minParticipants) {\n                campaign.status = Status.SUCCESS;\n            } else {\n                campaign.status = Status.FAILED;\n            }\n            emit CampaignCompleted(_campaignId, campaign.status);\n        }\n    }\n    \n    //   \n    function getCampaign(uint256 _campaignId) public view returns (\n        string memory title,\n        uint256 price,\n        uint256 minParticipants,\n        uint256 deadline,\n        uint256 currentParticipants,\n        Status status,\n        address creator,\n        string memory imageUrl\n    ) {\n        Campaign storage campaign = campaigns[_campaignId];\n        return (\n            campaign.title,\n            campaign.price,\n            campaign.minParticipants,\n            campaign.deadline,\n            campaign.currentParticipants,\n            campaign.status,\n            campaign.creator,\n            campaign.imageUrl\n        );\n    }\n    \n    //   \n    function hasJoined(uint256 _campaignId, address _participant) public view returns (bool) {\n        return campaigns[_campaignId].participants[_participant];\n    }\n}",
  "sourcePath": "/home/limpidus/blockchain/final_pj/contracts/GroupBuying.sol",
  "compiler": {
    "name": "solc",
    "version": "0.8.19+commit.7dd6d404.Emscripten.clang"
  },
  "schemaVersion": "3.4.16",
  "updatedAt": "2024-12-08T15:31:01.041Z",
  "networkType": "ethereum",
  "devdoc": {
    "kind": "dev",
    "methods": {},
    "version": 1
  },
  "userdoc": {
    "kind": "user",
    "methods": {},
    "version": 1
  }
}